{
  "_format": "hh-sol-artifact-1",
  "contractName": "SmartBnb",
  "sourceName": "contracts/SmartBnb.sol",
  "abi": [
    {
      "inputs": [
        {
          "internalType": "uint256",
          "name": "_listingFee",
          "type": "uint256"
        }
      ],
      "stateMutability": "nonpayable",
      "type": "constructor"
    },
    {
      "anonymous": false,
      "inputs": [
        {
          "indexed": true,
          "internalType": "address",
          "name": "previousOwner",
          "type": "address"
        },
        {
          "indexed": true,
          "internalType": "address",
          "name": "newOwner",
          "type": "address"
        }
      ],
      "name": "OwnershipTransferred",
      "type": "event"
    },
    {
      "inputs": [
        {
          "internalType": "string",
          "name": "_name",
          "type": "string"
        },
        {
          "internalType": "string",
          "name": "_city",
          "type": "string"
        },
        {
          "internalType": "string",
          "name": "_lat",
          "type": "string"
        },
        {
          "internalType": "string",
          "name": "_long",
          "type": "string"
        },
        {
          "internalType": "string",
          "name": "_description",
          "type": "string"
        },
        {
          "internalType": "string",
          "name": "_imgUrl",
          "type": "string"
        },
        {
          "internalType": "uint256",
          "name": "_maxGuests",
          "type": "uint256"
        },
        {
          "internalType": "uint256",
          "name": "_pricePerDay",
          "type": "uint256"
        }
      ],
      "name": "addRental",
      "outputs": [],
      "stateMutability": "payable",
      "type": "function"
    },
    {
      "inputs": [
        {
          "internalType": "uint256",
          "name": "_id",
          "type": "uint256"
        },
        {
          "internalType": "uint256",
          "name": "_fromDateTimestamp",
          "type": "uint256"
        },
        {
          "internalType": "uint256",
          "name": "_toDateTimestamp",
          "type": "uint256"
        }
      ],
      "name": "bookDates",
      "outputs": [],
      "stateMutability": "payable",
      "type": "function"
    },
    {
      "inputs": [
        {
          "internalType": "uint256",
          "name": "_newFee",
          "type": "uint256"
        }
      ],
      "name": "changeListingFee",
      "outputs": [],
      "stateMutability": "nonpayable",
      "type": "function"
    },
    {
      "inputs": [
        {
          "internalType": "uint256",
          "name": "_id",
          "type": "uint256"
        }
      ],
      "name": "getRentalBookings",
      "outputs": [
        {
          "components": [
            {
              "internalType": "address",
              "name": "renter",
              "type": "address"
            },
            {
              "internalType": "uint256",
              "name": "fromTimestamp",
              "type": "uint256"
            },
            {
              "internalType": "uint256",
              "name": "toTimestamp",
              "type": "uint256"
            }
          ],
          "internalType": "struct SmartBnb.Booking[]",
          "name": "",
          "type": "tuple[]"
        }
      ],
      "stateMutability": "view",
      "type": "function"
    },
    {
      "inputs": [
        {
          "internalType": "uint256",
          "name": "_id",
          "type": "uint256"
        }
      ],
      "name": "getRentalInfo",
      "outputs": [
        {
          "components": [
            {
              "internalType": "uint256",
              "name": "id",
              "type": "uint256"
            },
            {
              "internalType": "address",
              "name": "owner",
              "type": "address"
            },
            {
              "internalType": "string",
              "name": "name",
              "type": "string"
            },
            {
              "internalType": "string",
              "name": "city",
              "type": "string"
            },
            {
              "internalType": "string",
              "name": "lat",
              "type": "string"
            },
            {
              "internalType": "string",
              "name": "long",
              "type": "string"
            },
            {
              "internalType": "string",
              "name": "description",
              "type": "string"
            },
            {
              "internalType": "string",
              "name": "imgUrl",
              "type": "string"
            },
            {
              "internalType": "uint256",
              "name": "maxGuests",
              "type": "uint256"
            },
            {
              "internalType": "uint256",
              "name": "pricePerDay",
              "type": "uint256"
            }
          ],
          "internalType": "struct SmartBnb.RentalInfo",
          "name": "",
          "type": "tuple"
        }
      ],
      "stateMutability": "view",
      "type": "function"
    },
    {
      "inputs": [],
      "name": "getRentals",
      "outputs": [
        {
          "components": [
            {
              "internalType": "uint256",
              "name": "id",
              "type": "uint256"
            },
            {
              "internalType": "address",
              "name": "owner",
              "type": "address"
            },
            {
              "internalType": "string",
              "name": "name",
              "type": "string"
            },
            {
              "internalType": "string",
              "name": "city",
              "type": "string"
            },
            {
              "internalType": "string",
              "name": "lat",
              "type": "string"
            },
            {
              "internalType": "string",
              "name": "long",
              "type": "string"
            },
            {
              "internalType": "string",
              "name": "description",
              "type": "string"
            },
            {
              "internalType": "string",
              "name": "imgUrl",
              "type": "string"
            },
            {
              "internalType": "uint256",
              "name": "maxGuests",
              "type": "uint256"
            },
            {
              "internalType": "uint256",
              "name": "pricePerDay",
              "type": "uint256"
            }
          ],
          "internalType": "struct SmartBnb.RentalInfo[]",
          "name": "",
          "type": "tuple[]"
        }
      ],
      "stateMutability": "view",
      "type": "function"
    },
    {
      "inputs": [],
      "name": "listingFee",
      "outputs": [
        {
          "internalType": "uint256",
          "name": "",
          "type": "uint256"
        }
      ],
      "stateMutability": "view",
      "type": "function"
    },
    {
      "inputs": [],
      "name": "owner",
      "outputs": [
        {
          "internalType": "address",
          "name": "",
          "type": "address"
        }
      ],
      "stateMutability": "view",
      "type": "function"
    },
    {
      "inputs": [],
      "name": "renounceOwnership",
      "outputs": [],
      "stateMutability": "nonpayable",
      "type": "function"
    },
    {
      "inputs": [
        {
          "internalType": "uint256",
          "name": "",
          "type": "uint256"
        }
      ],
      "name": "rentals",
      "outputs": [
        {
          "internalType": "uint256",
          "name": "id",
          "type": "uint256"
        },
        {
          "internalType": "address",
          "name": "owner",
          "type": "address"
        },
        {
          "internalType": "string",
          "name": "name",
          "type": "string"
        },
        {
          "internalType": "string",
          "name": "city",
          "type": "string"
        },
        {
          "internalType": "string",
          "name": "lat",
          "type": "string"
        },
        {
          "internalType": "string",
          "name": "long",
          "type": "string"
        },
        {
          "internalType": "string",
          "name": "description",
          "type": "string"
        },
        {
          "internalType": "string",
          "name": "imgUrl",
          "type": "string"
        },
        {
          "internalType": "uint256",
          "name": "maxGuests",
          "type": "uint256"
        },
        {
          "internalType": "uint256",
          "name": "pricePerDay",
          "type": "uint256"
        }
      ],
      "stateMutability": "view",
      "type": "function"
    },
    {
      "inputs": [
        {
          "internalType": "address",
          "name": "newOwner",
          "type": "address"
        }
      ],
      "name": "transferOwnership",
      "outputs": [],
      "stateMutability": "nonpayable",
      "type": "function"
    },
    {
      "inputs": [],
      "name": "withdrawBalance",
      "outputs": [],
      "stateMutability": "nonpayable",
      "type": "function"
    }
  ],
  "bytecode": "0x60806040523480156200001157600080fd5b50604051620021f7380380620021f7833981016040819052620000349162000098565b6200003f3362000048565b600155620000b2565b600080546001600160a01b038381166001600160a01b0319831681178455604051919092169283917f8be0079c531659141344cd1fd0a4f28419497f9722a3daafe3b4186f6b6457e09190a35050565b600060208284031215620000ab57600080fd5b5051919050565b61213580620000c26000396000f3fe6080604052600436106100a75760003560e01c806377f25f6f1161006457806377f25f6f146101675780637eb89724146101875780638da5cb5b146101b45780639982aaeb146101dc578063af94a1d1146101ef578063f2fde38b1461022557600080fd5b806327dc3fbd146100ac57806346e6e5fb146100e25780635ea5da20146100f75780635fd8c710146101195780636a1b7ecc1461012e578063715018a614610152575b600080fd5b3480156100b857600080fd5b506100cc6100c7366004611a3f565b610245565b6040516100d99190611b7d565b60405180910390f35b6100f56100f0366004611b90565b6106be565b005b34801561010357600080fd5b5061010c610cde565b6040516100d99190611bbc565b34801561012557600080fd5b506100f56110de565b34801561013a57600080fd5b5061014460015481565b6040519081526020016100d9565b34801561015e57600080fd5b506100f5611178565b34801561017357600080fd5b506100f5610182366004611a3f565b61118c565b34801561019357600080fd5b506101a76101a2366004611a3f565b611199565b6040516100d99190611c1e565b3480156101c057600080fd5b506000546040516001600160a01b0390911681526020016100d9565b6100f56101ea366004611d23565b611247565b3480156101fb57600080fd5b5061020f61020a366004611a3f565b611434565b6040516100d99a99989796959493929190611e2d565b34801561023157600080fd5b506100f5610240366004611ed8565b6117cf565b6102a46040518061014001604052806000815260200160006001600160a01b0316815260200160608152602001606081526020016060815260200160608152602001606081526020016060815260200160008152602001600081525090565b8160025481106102cf5760405162461bcd60e51b81526004016102c690611f01565b60405180910390fd5b600383815481106102e2576102e2611f25565b90600052602060002090600a020160405180610140016040529081600082015481526020016001820160009054906101000a90046001600160a01b03166001600160a01b03166001600160a01b0316815260200160028201805461034590611f3b565b80601f016020809104026020016040519081016040528092919081815260200182805461037190611f3b565b80156103be5780601f10610393576101008083540402835291602001916103be565b820191906000526020600020905b8154815290600101906020018083116103a157829003601f168201915b505050505081526020016003820180546103d790611f3b565b80601f016020809104026020016040519081016040528092919081815260200182805461040390611f3b565b80156104505780601f1061042557610100808354040283529160200191610450565b820191906000526020600020905b81548152906001019060200180831161043357829003601f168201915b5050505050815260200160048201805461046990611f3b565b80601f016020809104026020016040519081016040528092919081815260200182805461049590611f3b565b80156104e25780601f106104b7576101008083540402835291602001916104e2565b820191906000526020600020905b8154815290600101906020018083116104c557829003601f168201915b505050505081526020016005820180546104fb90611f3b565b80601f016020809104026020016040519081016040528092919081815260200182805461052790611f3b565b80156105745780601f1061054957610100808354040283529160200191610574565b820191906000526020600020905b81548152906001019060200180831161055757829003601f168201915b5050505050815260200160068201805461058d90611f3b565b80601f01602080910402602001604051908101604052809291908181526020018280546105b990611f3b565b80156106065780601f106105db57610100808354040283529160200191610606565b820191906000526020600020905b8154815290600101906020018083116105e957829003601f168201915b5050505050815260200160078201805461061f90611f3b565b80601f016020809104026020016040519081016040528092919081815260200182805461064b90611f3b565b80156106985780601f1061066d57610100808354040283529160200191610698565b820191906000526020600020905b81548152906001019060200180831161067b57829003601f168201915b505050505081526020016008820154815260200160098201548152505091505b50919050565b8260025481106106e05760405162461bcd60e51b81526004016102c690611f01565b6000600385815481106106f5576106f5611f25565b90600052602060002090600a020160405180610140016040529081600082015481526020016001820160009054906101000a90046001600160a01b03166001600160a01b03166001600160a01b0316815260200160028201805461075890611f3b565b80601f016020809104026020016040519081016040528092919081815260200182805461078490611f3b565b80156107d15780601f106107a6576101008083540402835291602001916107d1565b820191906000526020600020905b8154815290600101906020018083116107b457829003601f168201915b505050505081526020016003820180546107ea90611f3b565b80601f016020809104026020016040519081016040528092919081815260200182805461081690611f3b565b80156108635780601f1061083857610100808354040283529160200191610863565b820191906000526020600020905b81548152906001019060200180831161084657829003601f168201915b5050505050815260200160048201805461087c90611f3b565b80601f01602080910402602001604051908101604052809291908181526020018280546108a890611f3b565b80156108f55780601f106108ca576101008083540402835291602001916108f5565b820191906000526020600020905b8154815290600101906020018083116108d857829003601f168201915b5050505050815260200160058201805461090e90611f3b565b80601f016020809104026020016040519081016040528092919081815260200182805461093a90611f3b565b80156109875780601f1061095c57610100808354040283529160200191610987565b820191906000526020600020905b81548152906001019060200180831161096a57829003601f168201915b505050505081526020016006820180546109a090611f3b565b80601f01602080910402602001604051908101604052809291908181526020018280546109cc90611f3b565b8015610a195780601f106109ee57610100808354040283529160200191610a19565b820191906000526020600020905b8154815290600101906020018083116109fc57829003601f168201915b50505050508152602001600782018054610a3290611f3b565b80601f0160208091040260200160405190810160405280929190818152602001828054610a5e90611f3b565b8015610aab5780601f10610a8057610100808354040283529160200191610aab565b820191906000526020600020905b815481529060010190602001808311610a8e57829003601f168201915b5050509183525050600882015460208201526009909101546040909101529050600062015180610adb8686611f85565b610ae59190611f9e565b90506001811015610b385760405162461bcd60e51b815260206004820152601a60248201527f43616e277420626f6f6b206c657373207468616e20312064617900000000000060448201526064016102c6565b3481836101200151610b4a9190611fc0565b14610b8d5760405162461bcd60e51b8152602060048201526013602482015272125b9cdd59999a58da595b9d08185b5bdd5b9d606a1b60448201526064016102c6565b610b98868686611845565b15610bd65760405162461bcd60e51b815260206004820152600e60248201526d105b1c9958591e48189bdbdad95960921b60448201526064016102c6565b600086815260046020908152604080832081516060810183523381528084018a81528184018a81528354600180820186559488528688209351600390910290930180546001600160a01b0319166001600160a01b03948516178155915193820193909355915160029092019190915591850151905191169034908381818185875af1925050503d8060008114610c88576040519150601f19603f3d011682016040523d82523d6000602084013e610c8d565b606091505b5050905080610cd55760405162461bcd60e51b81526020600482015260146024820152732330b4b632b2103a379039b2b7321022ba3432b960611b60448201526064016102c6565b50505050505050565b60606003805480602002602001604051908101604052809291908181526020016000905b828210156110d55760008481526020908190206040805161014081018252600a86029092018054835260018101546001600160a01b03169383019390935260028301805492939291840191610d5690611f3b565b80601f0160208091040260200160405190810160405280929190818152602001828054610d8290611f3b565b8015610dcf5780601f10610da457610100808354040283529160200191610dcf565b820191906000526020600020905b815481529060010190602001808311610db257829003601f168201915b50505050508152602001600382018054610de890611f3b565b80601f0160208091040260200160405190810160405280929190818152602001828054610e1490611f3b565b8015610e615780601f10610e3657610100808354040283529160200191610e61565b820191906000526020600020905b815481529060010190602001808311610e4457829003601f168201915b50505050508152602001600482018054610e7a90611f3b565b80601f0160208091040260200160405190810160405280929190818152602001828054610ea690611f3b565b8015610ef35780601f10610ec857610100808354040283529160200191610ef3565b820191906000526020600020905b815481529060010190602001808311610ed657829003601f168201915b50505050508152602001600582018054610f0c90611f3b565b80601f0160208091040260200160405190810160405280929190818152602001828054610f3890611f3b565b8015610f855780601f10610f5a57610100808354040283529160200191610f85565b820191906000526020600020905b815481529060010190602001808311610f6857829003601f168201915b50505050508152602001600682018054610f9e90611f3b565b80601f0160208091040260200160405190810160405280929190818152602001828054610fca90611f3b565b80156110175780601f10610fec57610100808354040283529160200191611017565b820191906000526020600020905b815481529060010190602001808311610ffa57829003601f168201915b5050505050815260200160078201805461103090611f3b565b80601f016020809104026020016040519081016040528092919081815260200182805461105c90611f3b565b80156110a95780601f1061107e576101008083540402835291602001916110a9565b820191906000526020600020905b81548152906001019060200180831161108c57829003601f168201915b505050505081526020016008820154815260200160098201548152505081526020019060010190610d02565b50505050905090565b6110e6611995565b604051600090339047908381818185875af1925050503d8060008114611128576040519150601f19603f3d011682016040523d82523d6000602084013e61112d565b606091505b50509050806111755760405162461bcd60e51b81526020600482015260146024820152732330b4b632b2103a379039b2b7321022ba3432b960611b60448201526064016102c6565b50565b611180611995565b61118a60006119ef565b565b611194611995565b600155565b60608160025481106111bd5760405162461bcd60e51b81526004016102c690611f01565b600083815260046020908152604080832080548251818502810185019093528083529193909284015b8282101561123b576000848152602090819020604080516060810182526003860290920180546001600160a01b03168352600180820154848601526002909101549183019190915290835290920191016111e6565b50505050915050919050565b60015434101561128c5760405162461bcd60e51b815260206004820152601060248201526f496e73756666696369656e742066656560801b60448201526064016102c6565b6040805161014081018252600254815233602082019081529181018a8152606082018a90526080820189905260a0820188905260c0820187905260e08201869052610100820185905261012082018490526003805460018101825560009190915282517fc2575a0e9e593c00f959f8c92f12db2869c3395a3b0502d05e2516446f71f85b600a90920291820190815593517fc2575a0e9e593c00f959f8c92f12db2869c3395a3b0502d05e2516446f71f85c820180546001600160a01b0319166001600160a01b0390921691909117905590519192839290917fc2575a0e9e593c00f959f8c92f12db2869c3395a3b0502d05e2516446f71f85d01906113929082612026565b50606082015160038201906113a79082612026565b50608082015160048201906113bc9082612026565b5060a082015160058201906113d19082612026565b5060c082015160068201906113e69082612026565b5060e082015160078201906113fb9082612026565b5061010082015160088201556101209091015160099091015560028054906000611424836120e6565b9190505550505050505050505050565b6003818154811061144457600080fd5b60009182526020909120600a90910201805460018201546002830180549294506001600160a01b03909116929161147a90611f3b565b80601f01602080910402602001604051908101604052809291908181526020018280546114a690611f3b565b80156114f35780601f106114c8576101008083540402835291602001916114f3565b820191906000526020600020905b8154815290600101906020018083116114d657829003601f168201915b50505050509080600301805461150890611f3b565b80601f016020809104026020016040519081016040528092919081815260200182805461153490611f3b565b80156115815780601f1061155657610100808354040283529160200191611581565b820191906000526020600020905b81548152906001019060200180831161156457829003601f168201915b50505050509080600401805461159690611f3b565b80601f01602080910402602001604051908101604052809291908181526020018280546115c290611f3b565b801561160f5780601f106115e45761010080835404028352916020019161160f565b820191906000526020600020905b8154815290600101906020018083116115f257829003601f168201915b50505050509080600501805461162490611f3b565b80601f016020809104026020016040519081016040528092919081815260200182805461165090611f3b565b801561169d5780601f106116725761010080835404028352916020019161169d565b820191906000526020600020905b81548152906001019060200180831161168057829003601f168201915b5050505050908060060180546116b290611f3b565b80601f01602080910402602001604051908101604052809291908181526020018280546116de90611f3b565b801561172b5780601f106117005761010080835404028352916020019161172b565b820191906000526020600020905b81548152906001019060200180831161170e57829003601f168201915b50505050509080600701805461174090611f3b565b80601f016020809104026020016040519081016040528092919081815260200182805461176c90611f3b565b80156117b95780601f1061178e576101008083540402835291602001916117b9565b820191906000526020600020905b81548152906001019060200180831161179c57829003601f168201915b505050505090806008015490806009015490508a565b6117d7611995565b6001600160a01b03811661183c5760405162461bcd60e51b815260206004820152602660248201527f4f776e61626c653a206e6577206f776e657220697320746865207a65726f206160448201526564647265737360d01b60648201526084016102c6565b611175816119ef565b600083815260046020908152604080832080548251818502810185019093528083528493849084015b828210156118c3576000848152602090819020604080516060810182526003860290920180546001600160a01b031683526001808201548486015260029091015491830191909152908352909201910161186e565b50505050905060005b8151811015611987578181815181106118e7576118e7611f25565b602002602001015160200151851015801561191f575081818151811061190f5761190f611f25565b6020026020010151604001518511155b8061196f575081818151811061193757611937611f25565b602002602001015160200151841015801561196f575081818151811061195f5761195f611f25565b6020026020010151604001518411155b1561197f5760019250505061198e565b6001016118cc565b5060009150505b9392505050565b6000546001600160a01b0316331461118a5760405162461bcd60e51b815260206004820181905260248201527f4f776e61626c653a2063616c6c6572206973206e6f7420746865206f776e657260448201526064016102c6565b600080546001600160a01b038381166001600160a01b0319831681178455604051919092169283917f8be0079c531659141344cd1fd0a4f28419497f9722a3daafe3b4186f6b6457e09190a35050565b600060208284031215611a5157600080fd5b5035919050565b6000815180845260005b81811015611a7e57602081850181015186830182015201611a62565b506000602082860101526020601f19601f83011685010191505092915050565b6000610140825184526020830151611ac160208601826001600160a01b03169052565b506040830151816040860152611ad982860182611a58565b91505060608301518482036060860152611af38282611a58565b91505060808301518482036080860152611b0d8282611a58565b91505060a083015184820360a0860152611b278282611a58565b91505060c083015184820360c0860152611b418282611a58565b91505060e083015184820360e0860152611b5b8282611a58565b6101008581015190870152610120948501519490950193909352509192915050565b60208152600061198e6020830184611a9e565b600080600060608486031215611ba557600080fd5b505081359360208301359350604090920135919050565b6000602080830181845280855180835260408601915060408160051b870101925083870160005b82811015611c1157603f19888603018452611bff858351611a9e565b94509285019290850190600101611be3565b5092979650505050505050565b602080825282518282018190526000919060409081850190868401855b82811015611c7357815180516001600160a01b0316855286810151878601528501518585015260609093019290850190600101611c3b565b5091979650505050505050565b634e487b7160e01b600052604160045260246000fd5b600082601f830112611ca757600080fd5b813567ffffffffffffffff80821115611cc257611cc2611c80565b604051601f8301601f19908116603f01168101908282118183101715611cea57611cea611c80565b81604052838152866020858801011115611d0357600080fd5b836020870160208301376000602085830101528094505050505092915050565b600080600080600080600080610100898b031215611d4057600080fd5b883567ffffffffffffffff80821115611d5857600080fd5b611d648c838d01611c96565b995060208b0135915080821115611d7a57600080fd5b611d868c838d01611c96565b985060408b0135915080821115611d9c57600080fd5b611da88c838d01611c96565b975060608b0135915080821115611dbe57600080fd5b611dca8c838d01611c96565b965060808b0135915080821115611de057600080fd5b611dec8c838d01611c96565b955060a08b0135915080821115611e0257600080fd5b50611e0f8b828c01611c96565b93505060c0890135915060e089013590509295985092959890939650565b8a81526001600160a01b038a16602082015261014060408201819052600090611e588382018c611a58565b90508281036060840152611e6c818b611a58565b90508281036080840152611e80818a611a58565b905082810360a0840152611e948189611a58565b905082810360c0840152611ea88188611a58565b905082810360e0840152611ebc8187611a58565b6101008401959095525050610120015298975050505050505050565b600060208284031215611eea57600080fd5b81356001600160a01b038116811461198e57600080fd5b6020808252600a9082015269125b9d985b1a59081a5960b21b604082015260600190565b634e487b7160e01b600052603260045260246000fd5b600181811c90821680611f4f57607f821691505b6020821081036106b857634e487b7160e01b600052602260045260246000fd5b634e487b7160e01b600052601160045260246000fd5b81810381811115611f9857611f98611f6f565b92915050565b600082611fbb57634e487b7160e01b600052601260045260246000fd5b500490565b8082028115828204841417611f9857611f98611f6f565b601f82111561202157600081815260208120601f850160051c81016020861015611ffe5750805b601f850160051c820191505b8181101561201d5782815560010161200a565b5050505b505050565b815167ffffffffffffffff81111561204057612040611c80565b6120548161204e8454611f3b565b84611fd7565b602080601f83116001811461208957600084156120715750858301515b600019600386901b1c1916600185901b17855561201d565b600085815260208120601f198616915b828110156120b857888601518255948401946001909101908401612099565b50858210156120d65787850151600019600388901b60f8161c191681555b5050505050600190811b01905550565b6000600182016120f8576120f8611f6f565b506001019056fea264697066735822122027fa72cc0c1f5bbca62b0ad86473b65a944a40c17e3e49138bc6dcfdfb57aa5d64736f6c63430008120033",
  "linkReferences": {},
  "deployedLinkReferences": {}
}